:020000040800F2
:10000000B004002001010008830F00083F0F000822
:10001000810F0008590100081111000800000000BC
:100020000000000000000000000000005D1000085B
:100030005B01000800000000A50F00085F10000829
:100040001B0100081B0100081B0100081B01000820
:100050001B0100081B0100081B0100081B01000810
:100060001B0100081B0100081B0100081B01000800
:100070001B0100081B0100081B0100081B010008F0
:100080001B0100081B0100081B0100081B010008E0
:100090001B0100081B0100081B0100081B010008D0
:1000A0001B0100081B0100081B0100081B010008C0
:1000B0001B0100081B0100081B0100081B010008B0
:1000C0001B0100081B0100081B0100081B010008A0
:1000D0001B0100081B0100081B0100081B01000890
:1000E0001B0100081B0100081B010008DFF80CD0F1
:1000F00000F020F80048004709150008B00400206F
:100100000648804706480047FEE7FEE7FEE7FEE7B1
:10011000FEE7FEE7FEE7FEE7FEE7FEE7C9100008A0
:10012000ED000008421C10F8011B0029FBD1801AC9
:1001300070470000064C074D06E0E06840F0010300
:1001400094E8070098471034AC42F6D3FFF7D2FF8B
:10015000B4150008D4150008FEE7704770B50446D2
:1001600000F0F2F80546601C02D004480078044410
:1001700000F0EAF8401BA042FAD370BD0C0000204A
:100180002DE9F84FDFF890A100220AF1040B144684
:1001900001274FF00F090BF1040E00BF0B6807FA9F
:1001A00004F52B40AB4274D1DFF870C14E68A6EB6A
:1001B0000C0866452BD00DDC032E34D005DC36B39D
:1001C000012E19D0022E2FD11BE0112E16D0122E87
:1001D0002AD119E0B8F5881F19D006DCB8F5803FA0
:1001E00015D0B8F5801F1FD111E0B8F5001F0ED053
:1001F000B8F5041F18D10AE0CA6815E0CA68121DD4
:1002000012E0CA6808320FE0CA680C320CE08A6853
:100210002AB1012A4FF0080203D0456104E004220C
:1002200002E0056100E00022FF2B01D8064601E054
:1002300000F104064FEA840501D9A5F12005D6F89E
:1002400000C009FA05F82CEA080C02FA05F54CEA98
:10025000050CC6F800C04D68ED0057D5304DAE69AD
:1002600046F00106AE61AD6924F0030605F0010514
:1002700000952C4D06EB050CDCF80850A6074FEA5C
:10028000167809FA08F6B543274EB04202D1002687
:1002900010E03BE0254EB04201D101260AE0244E99
:1002A000B04201D1022605E0224EB04201D1032620
:1002B00000E0042606FA08F62E43CCF808604D68E4
:1002C000DAF80060ED03554601D51E4300E09E4379
:1002D0002E604D68DBF80060AD035D4601D51E431E
:1002E00000E09E432E604D68DEF80060ED0275462A
:1002F00001D51E4300E09E432E604D68AD020E4DB9
:100300002E6801D51E4300E09E432E60641C102C15
:10031000FFF444AFBDE8F88F000401400000111065
:10032000001002400000014000080140000C0140A4
:1003300000100140001401400C0401400AB10161A9
:1003400070470904FBE7000001488068704700001F
:100350000C000020024881680278114481607047D7
:100360000C000020074810B5016841F01001016041
:10037000032000F08FF8002000F006F800F024F8C9
:10038000002010BD0020024070B50D4D04464FF412
:100390007A712878B1FBF0F00A490968B1FBF0F0F6
:1003A00000F0B5FD48B9102C07D200222146501E9E
:1003B00000F050F800206C6070BD012070BD00009E
:1003C0000C00002018000020204808B5816941F089
:1003D00001018161816901F001010091C16941F070
:1003E0008051C161C06900F080500090032000F08E
:1003F00051F8002211466FF00B0000F02BF800229C
:1004000011466FF00A0000F025F8002211466FF047
:10041000090000F01FF800221146501F00F01AF8E2
:1004200000221146101F00F015F800221146901E00
:1004300000F010F800221146501E00F00BF804489E
:10044000416821F0E061416008BD000000100240F9
:1004500000000140F0B40E4B1B680C46C3F30223AE
:10046000C3F10705042D00D90425191D072901D260
:10047000002300E0DB1E012606FA05F1491E21409B
:1004800099409E40761E16403143F0BC00F07ABD84
:100490000CED00E0064900F0070208684FF6FF0384
:1004A000184040EA0220034A1043086070470000E9
:1004B0000CED00E00000FA052DE9F047DFF83C8183
:1004C00005460E46D8F8000000F00700B0420CD2F6
:1004D000D8F8001021F007013143C8F80010D8F80F
:1004E000000000F00700B04263D12878444C800738
:1004F00005D56068A96820F0F0000843606028789E
:10050000C00745D06868012816D02168022816D097
:10051000890700294DDA616821F003010143616018
:10052000FFF712FF6968074641F2883001290FD0B2
:100530000229814619D027E021688903E9E789016A
:10054000E7E700BFFFF700FFC11B494501D918E0ED
:1005500081466068C0F381000128F3D118E000BF34
:10056000FFF7F2FEC11B49450BD86068C0F381005C
:100570000228F5D10CE000BFFFF7E6FEC11B49459C
:1005800002D90320BDE8F087606810F00C0FF3D1AA
:10059000D8F80010404601F00701B1420BD90168BC
:1005A00021F0070131430160006800F00700B0420C
:1005B00001D00120E6E72878400705D56068E968A2
:1005C00020F4E060084360602878000706D5606882
:1005D000296920F4605040EAC100606000F01CF816
:1005E0006168084AC1F30311515CC84006490860BC
:1005F0000020FFF7C9FE0020C4E7000000200240F1
:1006000000100240A41500081800002001480068EE
:10061000704700001800002012A185B00FC98DE8B6
:100620000F0014A0144A006804905168134801F0A8
:100630000C03042B10D0082B0ED1C1F38343C90344
:100640001DF803000AD5516804AAC1F34041515C6A
:100650000A4A5043B0FBF1F005B0704708494843DF
:10066000FAE7000002030405060708090A0B0C0D4F
:100670000E0F1010010200000010024000127A005C
:1006800000093D002DE9F84F04460078B94DC00738
:1006900048D06868C0F38100012807D06868C0F3BB
:1006A0008100022809D16868C00306D52868800344
:1006B00038D5606800286FD034E06068B0F5803FBE
:1006C0000BD010B1B0F5A02F11D0286820F48030E5
:1006D0002860286820F4802002E0286840F48030F8
:1006E0002860606888B1FFF72FFE064609E0286899
:1006F00040F480202860F0E7FFF726FE801B642886
:1007000075D828688003F7D50CE0FFF71DFE064674
:1007100005E000BFFFF718FE801B6428F0D82868AA
:100720008003F7D42078944E80074FF001094FF0F2
:1007300000083BD5686810F00C0F07D06868C0F35C
:100740008100022809D16868C00306D428688007A0
:1007500014D5206901281FD110E02069B0B1C6F876
:100760000090FFF7F1FD074605E000BFFFF7ECFD45
:10077000C01B0228C4D828688007F7D5286861699B
:1007800020F0F80040EAC10028600FE0C6F80080C1
:10079000FFF7DAFD074606E0E9E000BFFFF7D4FD0A
:1007A000C01B022823D828688007F7D420780007C8
:1007B0002CD57248A169D9B1C0F80090FFF7C4FDEB
:1007C000074604E0FFF7C0FDC01B02280FD8686A87
:1007D0008007F7D56A484FF4FA510068B0FBF1F092
:1007E000009000BF0098411E0091FAD20EE080E018
:1007F000C0F80080FFF7A8FD074604E0FFF7A4FD5E
:10080000C01B022875D8686A8007F7D42078400793
:1008100060D5E8690027C00008D4E86940F080503E
:10082000E861E869012700F08050009055480168B0
:10083000C90513D40168834641F480710160FFF754
:1008400083FD824606E000BFFFF77EFDA0EB0A00B5
:1008500064284ED8DBF80000C005F5D5E068012813
:100860000AD008B1052813D0286A20F001002862B8
:10087000286A20F0040002E0286A40F001002862A3
:10088000E06841F2883B98B1FFF75EFD82460BE0DD
:10089000286A40F004002862EEE700BFFFF754FD2D
:1008A000A0EB0A0159455AD8286A8007F6D50CE012
:1008B000FFF74AFD824605E0FFF746FDA0EB0A017F
:1008C00059454CD8286A8007F6D41FB1E86920F052
:1008D0008050E861E06988B36968C1F38101022949
:1008E00045D00228C6F8608004D0FFF72DFD0446ED
:1008F00038E034E0FFF728FD074604E0FFF724FD69
:10090000C01B02282BD828688001F7D4206AB0F5D4
:10091000803F05D16868A16820F400300843686012
:10092000D4E908010843696821F474110843686038
:10093000C6F86090FFF708FD044606E015E000BF2A
:10094000FFF702FD001B022809D828688001F7D5AF
:100950000BE000BFFFF7F8FC001B022802D90320C0
:10096000BDE8F88F28688001F4D40020F8E7012062
:10097000F6E70000001002400000424280044242BC
:10098000180000200070004070B5040005D000255C
:10099000A56294F8510010B104E0012070BD20461A
:1009A00000F034F8022084F851002068016821F03A
:1009B00040010160D4E901010843D4E90312114365
:1009C000084361690843218B01F400710843E16920
:1009D0000843216A0843A16A084321680860A069A6
:1009E000042101EA1040616A0843216848602168D7
:1009F000E06A08612068C16921F40061C161656530
:100A0000012084F85100002070BD000010B500687E
:100A1000114986B088421CD11048816941F4805147
:100A2000816180690E4C00F480500490A0200090F9
:100A3000022001900320039069462046FFF7A0FBA7
:100A400000214020CDE90001029169462046FFF7D0
:100A500097FB06B010BD00000030014000100240BE
:100A6000000801402DE9F84F0446406800269846EA
:100A700017460D464FF00409B0F5827F01D1A068FA
:100A800090B194F85000012819D04FF0010B84F870
:100A900050B0FFF759FC009094F851004FF0000A55
:100AA00001280ED002267FE084F8519013460A46B2
:100AB0002046CDF8008000F031F9BDE8F88F022023
:100AC000FBE7002D6FD0002F6DD084F85190C4F853
:100AD00054A0A563A787E787C4F830A0A4F834A082
:100AE000A4F836A0C4F840A0C4F844A0A0684FF40D
:100AF0000047B84204D12068016821F480410160B8
:100B000020680168490603D4016841F04001016092
:100B1000E068B8B133E020688168C90706D0007B7F
:100B200005F8010BE08F401EE0870BE0B8F1000FE5
:100B300023D0B8F1FF3F05D0FFF706FC0099411A1A
:100B400041451AD2E08F0028E5D11BE0206881687A
:100B5000C90706D0C06825F8020BE08F401EE08769
:100B60000DE0B8F1000F08D0B8F1FF3F07D0FFF754
:100B7000EBFB0099411A414501D3032614E0E08FB5
:100B80000028E3D16068B0F5827F0AD1A068B8423E
:100B900002D0B0F5806F04D12068016821F04001D7
:100BA0000160606D00B1012684F851B084F850A056
:100BB000304682E72DE9F84F044690F850000026B1
:100BC000994617460D4601280DD04FF0010B84F8C9
:100BD00050B0FFF7B9FB804694F85100B2460128A7
:100BE00004D0022694E00220BDE8F88F002D7BD0CF
:100BF000002F79D0032084F85100C4F854A0256355
:100C0000A786E786C4F838A0A4F83CA0A4F83EA0C4
:100C1000C4F844A0C4F840A0A068B0F5004F04D1C7
:100C20002068016841F4804101602068016849063C
:100C300003D4016841F040010160E068B0F5006F45
:100C4000606804D030B3E08E012823D03EE010B1BC
:100C5000E08E01281AD135F8021B206805E02068D3
:100C60008168890706D535F8021BC160E08E401EF9
:100C7000E0860BE0B9F1000F34D0B9F1FF3F05D0A9
:100C8000FFF762FBA0EB080149452BD2E08E00285C
:100C9000E5D11EE0216815F8010B087306E0206815
:100CA0008168890706D515F8011B0173E08E401E87
:100CB000E0860BE0B9F1000F14D0B9F1FF3F05D089
:100CC000FFF742FBA0EB080149450BD2E08E00285C
:100CD000E5D14B46012202212046CDF8008000F0EC
:100CE00072F910B1032613E011E04246494620464E
:100CF00000F059F918B101262020606508E0A068CD
:100D000018B92068C16880680090606D00B1012644
:100D100084F851B084F850A0304665E72DE9F84FCB
:100D2000044690F8500000260A9F9A4693460D46C6
:100D30004FF0010801280ED0012084F85000FFF781
:100D400003FB814694F85100616801280CD0B1F58D
:100D5000827F07D102E00220BDE8F88FA16809B9BF
:100D6000042801D00226BDE055B1BBF1000F07D029
:100D7000BAF1000F04D094F85100012802D004E029
:100D80000126AFE0052084F8510000206065C4F81A
:100D900038B0A4F83EA0A4F83CA02563A4F836A07F
:100DA000A4F834A02064606420680168490603D474
:100DB000016841F040010160E068B0F5006F6068D3
:100DC00004D0E8B3E08E01283BD06AE010B1E08E99
:100DD00001282ED1216835F8020BC860E08E401E34
:100DE000E08626E0B8F1000F0DD0E08E58B1206803
:100DF0008168890707D535F8021BC160E08E401E67
:100E0000E0864FF00008E08F58B120688168C9077C
:100E100007D0C0682BF8020BE08F401EE0874FF030
:100E20000108781C05D0FFF78FFAA0EB0900B84243
:100E300046D2E08E0028D5D1E08F0028D2D136E00E
:100E4000FFE7216815F8010B0873E08E401EE0866D
:100E500027E000BFB8F1000F0DD0E08E58B1206838
:100E60008168890707D515F8011B0173E08E401EC4
:100E7000E0864FF00008E08F58B120688168C9070C
:100E800007D0C0680BF8010BE08F401EE0874FF0E1
:100E90000108781C05D0FFF757FAA0EB0900B8420B
:100EA0000ED2E08E0028D5D1E08F0028D2D13B466B
:100EB000012202212046CDF8009000F084F808B10C
:100EC00003260FE04A463946204600F06CF818B178
:100ED00001262020606505E0A06818B92068C16877
:100EE00080680090012084F85100002084F85000B0
:100EF000304631E74FF0E0210428086903D020F0A4
:100F000004000861704740F00400FAE7704710B52C
:100F1000401EB0F1807F01D3012010BD4FF0E024CE
:100F200060610F21601700F02DF80020A0610720FC
:100F30002061002010BD10B5FFF7E8FF10BDFEE7EF
:100F40000E4810B50C4901604FF4827141600021D8
:100F50008160C1604FF400720161C0E90512C16196
:100F60000162416281620A21C162FFF70DFD002822
:100F700000D0FEE710BD0000003001405800002006
:100F8000FEE770470907090E002806DA00F00F0097
:100F900000F1E02080F8141D704700F1E02080F897
:100FA00000147047704738B50B4600920446002283
:100FB000802100F008F8002804D0606D40F0200087
:100FC0006065032038BD2DE9F0411D4617460E46E9
:100FD0000446DDF8188035E0681C33D02DB1FFF7EA
:100FE000B3F9A0EB0800A8422CD32068416821F097
:100FF000E00141606068B0F5827F0BD1A068B0F578
:10100000004F02D0B0F5806F04D12068016821F054
:1010100040010160A06AB0F5005F0AD12068016854
:101020004DF6FF72114001602068016841F40051E3
:101030000160012084F85100002084F85000032052
:10104000BDE8F0812068806836EA000004D0002006
:10105000B842C1D10020F3E70120F9E7704710B58D
:10106000FFF778F9BDE81040FFF765BF10B590B005
:101070000220009001200490102000240590079485
:101080006846FFF7FFFA00B1FEE70F20CDE90A043A
:101090000C940D9400210AA80E94FFF70DFA00B1EC
:1010A000FEE7FFF7B3FA4FF47A71B0FBF1F0FFF708
:1010B0002EFF0420FFF71EFF00221146501EFFF7EF
:1010C000C9F910B010BD00000D48016841F00101E0
:1010D000016041680B4A1140416001680A4A1140B1
:1010E0000160016821F480210160416821F4FE0162
:1010F00041604FF41F0181600449C00308607047DC
:10110000001002400000FFF8FFFFF6FE08ED00E0CF
:10111000FEE700002DE9F041344C012684F82760F9
:1011200002E00120FFF71AF8FFF70EF96428F8D360
:1011300000F05EF887B20821A7F580470025042259
:1011400002234801113F0A2F4BD2DFE807F0282580
:10115000221F1B1713100A050A2121704FF480610A
:1011600003E0092121704FF40071E16119E0217061
:10117000E06116E0072121708021F6E70621217049
:101180004021F2E7052121702021EEE72270102195
:10119000EBE703222270E8E72370E26101E02670AA
:1011A000E36160814FF480512161E169090161616E
:1011B0000903B1FBF0F0E0604FF48030A061880AD1
:1011C000206200F0C3F8012000F08AF8022000F04D
:1011D00087F8032000F084F884F827500120BDE848
:1011E000F08184F827500020F9E700001C0000205F
:1011F0002DE9F0410F4E002210213046FFF79EF8F6
:101200009F2000F0CBF8A52000F0C8F80546A520E7
:1012100000F0C4F80446A52000F0C0F807460122FB
:1012200010213046FFF78AF8280440EA04203843AA
:10123000BDE8F081000801402DE9F0411C4616464A
:101240000F468046234D01E0FEF788FF95F8270002
:1012500001284FF00100F7D085F827006889A042E7
:1012600000D304B904463119814200D9841B07FB1D
:101270000066194F002210213846FFF75FF80B2057
:1012800000F08CF82878092802D3300E00F086F898
:10129000C6F3074000F082F8C6F3072000F07EF89E
:1012A000F0B200F07BF8002000F078F8A2B26423DE
:1012B00041460A48FFF7D6FB012210213846FFF7C6
:1012C0003DF80120FEF74AFF002085F82700BDE821
:1012D000F08100001C0000200008014058000020A0
:1012E00070B5184E0446002210213046FFF726F84C
:1012F000154D012C11D0022C19D0152000F04EF8FC
:10130000A52000F04BF8044685F8260001221021A4
:101310003046FFF713F8204670BD052000F03EF878
:10132000A52000F03BF8044685F82400EEE73520C0
:1013300000F034F8A52000F031F8044685F82500C7
:10134000E4E70000000801401C00002070B5114DCA
:10135000002210212846FEF7F1FF4B2000F01EF876
:101360000024A52000F01AF8641CE4B2042CF8D381
:10137000094E0024A52000F011F83119641CE4B2D4
:101380004870082CF6D32846BDE870400122102191
:10139000FEF7D4BF000801401C00002001B582B058
:1013A0000A200090012301AA02A90348FFF7B6FC16
:1013B0009DF804000EBD00005800002070B501200B
:1013C000FEF7CCFE0E4D002210212846FEF7B6FF98
:1013D0000520FFF7E3FF0B4CA520FFF7DFFF84F8A4
:1013E00024000120FEF7BAFE94F82400C007F3D1D0
:1013F0002846BDE8704001221021FEF79FBF000083
:10140000000801401C00002010B5094C00221021EA
:101410002046FEF793FF0620FFF7C0FF01221021B0
:101420002046FEF78BFFBDE810400120FEF796BE78
:10143000000801402DE9F0471D4616460F4681463B
:10144000264C01E0FEF78AFE94F8270001284FF0B1
:101450000100F7D084F827006089A919814200D8DB
:1014600005B9851B7119814200D9851BFFF7A6FFBD
:10147000FFF7CAFFDFF86880002210214046FEF720
:101480005DFF0220FFF78AFF608907FB0066207876
:10149000092802D3300EFFF781FFC6F30740FFF79C
:1014A0007DFFC6F30720FFF779FFF0B2FFF776FF65
:1014B000AAB2642349460B48FFF77CFB01221021A6
:1014C0004046FEF73BFFFFF779FF0120FEF746FE9F
:1014D000002084F82700BDE8F08700001C000020F1
:1014E000000801405800002002E008C8121F08C18F
:1014F000002AFAD170477047002001E001C1121F95
:10150000002AFBD17047000086B0FEF72BFFFFF7E3
:10151000ADFD2048816941F004018161816901F0DC
:1015200004010491816941F00801816180691A4CCC
:1015300000F008000490002210212046FEF7FEFE75
:1015400010200090012001900020029002200390C2
:1015500069462046FEF714FEFFF7F2FCFFF7DAFDBE
:101560006420FEF7FBFD0D48FEF7DCFD0346A414E6
:10157000002221460948FFF75DFF6420FEF7EEFDDB
:101580001423002221460648FFF756FEC820FEF726
:10159000E5FDFEE7001002400008014000000020C9
:1015A00044000020000000000000000001020304CD
:1015B00006070809D4150008000000201C000000E0
:1015C000E8140008F01500081C0000209404000036
:1015D000F8140008363638363636363636360000D9
:1015E00001000000100000000000000000A24A04FA
:04000005080000ED02
:00000001FF
